:100000000C9434000C94C1050C9486060C94510099
:100010000C94E7040C94F8030C9451000C945100D8
:100020000C9451000C9451000C9451000C9451000C
:100030000C9451000C9451000C9451000C945100FC
:100040000C9451000C9451000C9451000C945100EC
:100050000C9451000C9451000C9451000C945100DC
:100060000C9451000C94510011241FBECFEFD8E026
:10007000DEBFCDBF11E0A0E0B1E0E8EEFAE402C0DF
:1000800005900D92AA3BB107D9F711E0AAEBB1E0B8
:1000900001C01D92AD3BB107E1F70E94AE1E0C946A
:1000A00072250C940000DF93CF93CDB7DEB7ECE759
:1000B000F0E080E48083EAE7F0E087E88083CF9196
:1000C000DF910895DF93CF9300D00F92CDB7DEB7C5
:1000D0008B838B818E3018F08B818E508B83ECE775
:1000E000F0E08B81877080688083AAE7B0E0EAE760
:1000F000F0E0808180648C93EAE7F0E08081882FD3
:1001000090E0807490700097B9F7E8E7F0E08081A4
:100110008A83E9E7F0E0808189838981882F90E0F4
:10012000382F22278A81882F90E0822B932B0F90E3
:100130000F900F90CF91DF910895DF93CF93CDB7BC
:10014000DEB72E970FB6F894DEBF0FBECDBFA4E288
:10015000B0E0E4E2F0E0808182608C93A4E2B0E061
:10016000E4E2F0E0808184608C93A4E2B0E0E4E219
:10017000F0E0808188608C93A4E2B0E0E4E2F0E0FB
:10018000808180618C93A7E2B0E0E7E2F0E08081BB
:1001900081608C93A7E2B0E0E7E2F0E080818460C8
:1001A0008C93A5E2B0E0E5E2F0E0808182608C9380
:1001B000A5E2B0E0E5E2F0E0808184608C93A5E206
:1001C000B0E0E5E2F0E0808188608C93A5E2B0E0E9
:1001D000E5E2F0E0808180618C93A8E2B0E0E8E2A3
:1001E000F0E0808181608C93A8E2B0E0E8E2F0E08A
:1001F000808184608C93A7E2B0E0E7E2F0E0808148
:1002000080648C93A7E2B0E0E7E2F0E08081806157
:100210008C93AAE2B0E0EAE2F0E0808182608C9305
:10022000AAE2B0E0EAE2F0E0808180618C93AAE289
:10023000B0E0EAE2F0E080818E7F8C93A7E2B0E04C
:10024000E7E2F0E080818F7D8C93AAE2B0E0EAE201
:10025000F0E080818B7F8C93AAE2B0E0EAE2F0E0EC
:100260008081877F8C93ABE2B0E0EBE2F0E08081AD
:1002700081608C93A8E2B0E0E8E2F0E080818062E7
:100280008C93ABE2B0E0EBE2F0E0808184608C9391
:10029000ABE2B0E0EBE2F0E0808188608C93AAE210
:1002A000B0E0EAE2F0E0808180648C93A8E2B0E004
:1002B000E8E2F0E0808180648C93A8E2B0E0E8E2BC
:1002C000F0E0808180618C93ABE2B0E0EBE2F0E0A3
:1002D000808182608C93ABE2B0E0EBE2F0E0808161
:1002E00080618C9380E090E0AAEFB3E48B879C87D9
:1002F000AD87BE876B857C858D859E8520E030E04F
:100300004AE755E40E94B320DC01CB018F83988734
:10031000A987BA876F81788589859A8520E030E042
:1003200040E85FE30E94B92288232CF481E090E04A
:100330009E838D833FC06F81788589859A8520E073
:100340003FEF4FE757E40E94592218164CF56B8592
:100350007C858D859E8520E030E040E251E40E945E
:10036000B320DC01CB01BC01CD010E94DD1EDC010C
:10037000CB019E838D830FC080E991E09C838B83AA
:100380008B819C810197F1F79C838B838D819E816A
:1003900001979E838D838D819E81009769F714C09C
:1003A0006F81788589859A850E94DD1EDC01CB01ED
:1003B0009E838D838D819E819A83898389819A8191
:1003C0000197F1F79A838983A8E2B0E0E8E2F0E0D0
:1003D00080818F7B8C93A8E2B0E0E8E2F0E080813E
:1003E0008F7E8C93ABE2B0E0EBE2F0E080818D7F1A
:1003F0008C93ABE2B0E0EBE2F0E080818F7E8C93F7
:100400002E960FB6F894DEBF0FBECDBFCF91DF9111
:100410000895DF93CF93CDB7DEB7A8E6B0E0E8E666
:10042000F0E0808184608C93A8E6B0E0E8E6F0E03C
:10043000808182608C93ADE6B0E0EDE6F0E08081F3
:1004400081608C93ACE6B0E0ECE6F0E08081806205
:100450008C93A9E6B0E0E9E6F0E0808181608C93BE
:10046000A9E6B0E0E9E6F0E0808184608C93ADE33A
:10047000B0E0EDE3F0E0808181608C93ADE3B0E02B
:10048000EDE3F0E0808182608C9378948091BC01F0
:100490008E7F8093BC018091BC018D7F8093BC01D5
:1004A0008091BC018B7F8093BC018091BC01877FD0
:1004B0008093BC01CF91DF910895DF93CF93CDB7A7
:1004C000DEB7A2970FB6F894DEBF0FBECDBF81E1B5
:1004D0000E9462009093BB018093BA018091BA019F
:1004E0009091BB0121E0853F92070CF058C18091AB
:1004F000BC0182708823A1F08091BC0181708823A7
:1005000079F080910001909101010E94BF1E8091BD
:10051000BC018270882321F480E090E00E94BF1E1D
:100520008091BC018270882309F039C18091BC019F
:100530008470882309F48DC080910001909101019D
:1005400031E0843093071CF01AA219A204C08DE098
:1005500090E09AA389A3809100019091010129A1C3
:100560003AA1820F931F909301018093000180E0D4
:1005700090E0A8E4B3E4898F9A8FAB8FBC8F698D2C
:100580007A8D8B8D9C8D20E030E04AE755E40E9407
:10059000B320DC01CB018D8B9E8BAF8BB88F6D8927
:1005A0007E898F89988D20E030E040E85FE30E94EB
:1005B000B92288232CF481E090E09C8B8B8B3FC088
:1005C0006D897E898F89988D20E03FEF4FE757E452
:1005D0000E94592218164CF5698D7A8D8B8D9C8D51
:1005E00020E030E040E251E40E94B320DC01CB0186
:1005F000BC01CD010E94DD1EDC01CB019C8B8B8BED
:100600000FC080E991E09A8B898B89899A8901973B
:10061000F1F79A8B898B8B899C8901979C8B8B8BAB
:100620008B899C89009769F714C06D897E898F89B1
:10063000988D0E94DD1EDC01CB019C8B8B8B8B89FE
:100640009C89988B8F878F8598890197F1F7988B74
:100650008F878091BC018870882309F490C08091B5
:1006600000019091010198A38F8F809100019091DA
:100670000101181619061CF01E8E1D8E04C02DE0F7
:1006800030E03E8F2D8F8F8D98A12D8D3E8D821B5A
:10069000930B909301018093000180E090E0A8E427
:1006A000B3E48B879C87AD87BE876B857C858D8502
:1006B0009E8520E030E04AE755E40E94B320DC014B
:1006C000CB018F839887A987BA876F8178858985C1
:1006D0009A8520E030E040E85FE30E94B922882359
:1006E0002CF481E090E09E838D833FC06F817885FC
:1006F00089859A8520E03FEF4FE757E40E94592211
:1007000018164CF56B857C858D859E8520E030E044
:1007100040E251E40E94B320DC01CB01BC01CD01D9
:100720000E94DD1EDC01CB019E838D830FC080E91A
:1007300091E09C838B838B819C810197F1F79C8353
:100740008B838D819E8101979E838D838D819E8178
:10075000009769F714C06F81788589859A850E9412
:10076000DD1EDC01CB019E838D838D819E819A836A
:10077000898389819A810197F1F79A83898380918E
:10078000BC018170882339F08091000190910101B2
:100790000E94BF1E04C080E090E00E94BF1E8091B6
:1007A000BA019091BB0131E0853F930764F08091DD
:1007B000BA019091BB0123E0883E920724F48EE1B8
:1007C00090E00E94BF1E8091BA019091BB0133E07E
:1007D000883E930724F080E090E00E94BF1EA2961E
:1007E0000FB6F894DEBF0FBECDBFCF91DF91089555
:1007F0001F920F920FB60F9211242F933F934F9396
:100800005F936F937F938F939F93AF93BF93EF9378
:10081000FF93DF93CF9300D0CDB7DEB7F8948091EC
:10082000BC01817080958170982F91708091BC017E
:100830008E7F892B8093BC018091BC0181708823BD
:1008400009F458C0A8E2B0E0E8E2F0E080818064FA
:100850008C9380E061E00E94E21382E091E00E94CC
:100860009F1080E061E00E94E21383E191E00E942A
:100870009F1080E062E00E94E21382E091E00E941B
:100880009F1080E062E00E94E2138BE191E00E9401
:100890009F1080910001282F30E084E690E0AC01A9
:1008A000249FC001259F900D349F900D112424E0BA
:1008B00031E0B9010E94E324CB018A838A81882F29
:1008C00090E00E94BF1380E063E00E94E21387E2A1
:1008D00091E00E949F1080E063E00E94E21386E3B3
:1008E00091E00E949F108091BA019091BB010E94FB
:1008F000BF1357C0A8E2B0E0E8E2F0E080818F7B50
:100900008C9380E061E00E94E21382E091E00E941B
:100910009F1080E061E00E94E21381E491E00E9478
:100920009F1080E062E00E94E21382E091E00E946A
:100930009F1080E062E00E94E2138BE191E00E9450
:100940009F1080910001282F30E084E690E0AC01F8
:10095000249FC001259F900D349F900D112424E009
:1009600031E0B9010E94E324CB0189838981882F7A
:1009700090E00E94BF1380E063E00E94E21387E2F0
:1009800091E00E949F1080E063E00E94E21386E302
:1009900091E00E949F108091BA019091BB010E944A
:1009A000BF1378940F900F90CF91DF91FF91EF914B
:1009B000BF91AF919F918F917F916F915F914F9177
:1009C0003F912F910F900FBE0F901F9018951F927F
:1009D0000F920FB60F9211242F933F934F935F9373
:1009E0006F937F938F939F93AF93BF93EF93FF93F7
:1009F000DF93CF9300D0CDB7DEB7F894E6E2F0E016
:100A00008081882F90E080729070009709F05DC01F
:100A10008091BC0182608093BC01A8E2B0E0E8E272
:100A2000F0E0808180618C9380E060E00E94E213BE
:100A300082E091E00E949F1080E060E00E94E2135B
:100A40008AE491E00E949F1080E062E00E94E2133D
:100A500082E091E00E949F1080E062E00E94E21339
:100A60008BE191E00E949F1080910001282F30E0DF
:100A700084E690E0AC01249FC001259F900D349F37
:100A8000900D112424E031E0B9010E94E324CB0150
:100A90008A838A81882F90E00E94BF1380E063E000
:100AA0000E94E21387E291E00E949F1080E063E0E1
:100AB0000E94E21386E391E00E949F108091BA01A8
:100AC0009091BB010E94BF1346C08091BC018D7FF5
:100AD0008093BC01A8E2B0E0E8E2F0E080818F7E84
:100AE0008C9380E060E00E94E21382E091E00E943B
:100AF0009F1080E060E00E94E21384E591E00E9494
:100B00009F1080E062E00E94E21382E091E00E9488
:100B10009F1080E062E00E94E2138BE191E00E946E
:100B20009F1080910001282F30E084E690E0AC0116
:100B3000249FC001259F900D349F900D112424E027
:100B400031E0B9010E94E324CB0189838981882F98
:100B500090E00E94BF1378940F900F90CF91DF9197
:100B6000FF91EF91BF91AF919F918F917F916F9185
:100B70005F914F913F912F910F900FBE0F901F905B
:100B800018951F920F920FB60F9211242F933F9337
:100B90004F935F936F937F938F939F93AF93BF9385
:100BA000EF93FF93DF93CF9300D0CDB7DEB7F894E8
:100BB0008091BC0186958695817080958170817049
:100BC000982F990F990F8091BC018B7F892B80936F
:100BD000BC018091BC018470882309F450C0ABE251
:100BE000B0E0EBE2F0E0808182608C9380E062E034
:100BF0000E94E21382E091E00E949F1080E062E098
:100C00000E94E2138BE191E00E949F10809100010D
:100C1000282F30E084E690E0AC01249FC001259F9E
:100C2000900D349F900D112424E031E0B9010E9411
:100C3000E324CB018A838A81813029F48FE591E016
:100C40000E949F1005C08A81882F90E00E94BF13E8
:100C500080E063E00E94E21387E291E00E949F102F
:100C600080E063E00E94E21386E391E00E949F101F
:100C70008091BA019091BB010E94BF1331C0ABE2D9
:100C8000B0E0EBE2F0E080818D7F8C9380E062E069
:100C90000E94E21382E091E00E949F1080E062E0F7
:100CA0000E94E2138BE191E00E949F10809100016D
:100CB000282F30E084E690E0AC01249FC001259FFE
:100CC000900D349F900D112424E031E0B9010E9471
:100CD000E324CB0189838981882F90E00E94BF1390
:100CE00078940F900F90CF91DF91FF91EF91BF918A
:100CF000AF919F918F917F916F915F914F913F91B4
:100D00002F910F900FBE0F901F9018951F920F926A
:100D10000FB60F9211242F933F934F935F936F93CE
:100D20007F938F939F93AF93BF93EF93FF93DF9343
:100D3000CF9300D0CDB7DEB7F8948091BC018695F3
:100D4000869586958170809581708170982F990F16
:100D5000990F990F8091BC01877F892B8093BC01EB
:100D60008091BC018870882309F448C0ABE2B0E0F0
:100D7000EBE2F0E0808180618C9380E062E00E9491
:100D8000E21382E091E00E949F1080E062E00E9406
:100D9000E2138BE191E00E949F1080910001282FC7
:100DA00030E084E690E0AC01249FC001259F900DC7
:100DB000349F900D112424E031E0B9010E94E32416
:100DC000CB018A838A81882F90E00E94BF1380E044
:100DD00063E00E94E21387E291E00E949F1080E0AE
:100DE00063E00E94E21386E391E00E949F108091ED
:100DF000BA019091BB010E94BF1331C0ABE2B0E0D9
:100E0000EBE2F0E080818F7E8C9380E062E00E94D4
:100E1000E21382E091E00E949F1080E062E00E9475
:100E2000E2138BE191E00E949F1080910001282F36
:100E300030E084E690E0AC01249FC001259F900D36
:100E4000349F900D112424E031E0B9010E94E32485
:100E5000CB0189838981882F90E00E94BF13789409
:100E60000F900F90CF91DF91FF91EF91BF91AF91D4
:100E70009F918F917F916F915F914F913F912F91B2
:100E80000F900FBE0F901F9018950F931F93DF9335
:100E9000CF93CDB7DEB7C25DD0400FB6F894DEBFBA
:100EA0000FBECDBFFE01E153FF4F80E090E0A8EC04
:100EB000B2E480839183A283B3838E0105531F4FD5
:100EC000FE01E153FF4F608171818281938120E0B7
:100ED00030E04AE755E40E94B320DC01CB01F80181
:100EE00080839183A283B383FE01E553FF4F60812A
:100EF00071818281938120E030E040E85FE30E94CD
:100F0000B922882344F4FE01E753FF4F81E090E0CB
:100F10009183808364C0FE01E553FF4F608171813E
:100F20008281938120E03FEF4FE757E40E945922EE
:100F300018160CF043C0FE01E153FF4F6081718130
:100F40008281938120E030E040E251E40E94B320AE
:100F5000DC01CB018E0107531F4FBC01CD010E9464
:100F6000DD1EDC01CB01F801918380831FC0FE01EF
:100F7000E953FF4F80E991E091838083FE01E953BB
:100F8000FF4F808191810197F1F7FE01E953FF4FF7
:100F900091838083DE01A753BF4FFE01E753FF4FCC
:100FA00080819181019711969C938E93FE01E75366
:100FB000FF4F808191810097D1F627C08E010753A2
:100FC0001F4FFE01E553FF4F608171818281938144
:100FD0000E94DD1EDC01CB01F80191838083DE01DC
:100FE000AB53BF4FFE01E753FF4F808191818D933B
:100FF0009C93FE01EB53FF4F808191810197F1F7A4
:10100000FE01EB53FF4F91838083A8E2B0E0E8E25A
:10101000F0E080818B7F8C93A8E2B0E0E8E2F0E022
:1010200080818E7F8C9380E30E94D111FE01EF536B
:10103000FF4F80E090E0A0E2B1E480839183A2833F
:10104000B3838E0103541F4FFE01EF53FF4F6081A6
:1010500071818281938120E030E04AE755E40E946B
:10106000B320DC01CB01F80180839183A283B38399
:10107000FE01E354FF4F608171818281938120E002
:1010800030E040E85FE30E94B922882344F4FE0187
:10109000E554FF4F81E090E09183808364C0FE01BE
:1010A000E354FF4F608171818281938120E03FEFA3
:1010B0004FE757E40E94592218160CF043C0FE0176
:1010C000EF53FF4F608171818281938120E030E096
:1010D00040E251E40E94B320DC01CB018E010554B3
:1010E0001F4FBC01CD010E94DD1EDC01CB01F801C8
:1010F000918380831FC0FE01E754FF4F80E991E098
:1011000091838083FE01E754FF4F80819181019795
:10111000F1F7FE01E754FF4F91838083DE01A55470
:10112000BF4FFE01E554FF4F8081918101971196D9
:101130009C938E93FE01E554FF4F8081918100972F
:10114000D1F627C08E0105541F4FFE01E354FF4F17
:1011500060817181828193810E94DD1EDC01CB015F
:10116000F80191838083DE01A954BF4FFE01E5544D
:10117000FF4F808191818D939C93FE01E954FF4F35
:10118000808191810197F1F7FE01E954FF4F91832E
:10119000808380E30E94D111FE01ED54FF4F80E077
:1011A00090E0A8E4B3E480839183A283B3838E01AB
:1011B00001551F4FFE01ED54FF4F60817181828107
:1011C00093812BEA3AEA4AEA50E40E94B320DC0118
:1011D000CB01F80180839183A283B383FE01E155A3
:1011E000FF4F608171818281938120E030E040E88F
:1011F0005FE30E94B922882334F4FE01E255FF4FD9
:1012000081E08083E0C0FE01E155FF4F6081718184
:101210008281938120E030E04FE753E40E9459221D
:1012200018160CF0C0C0FE01ED54FF4F60817181B3
:101230008281938120E030E04AE754E40E94AD21AE
:10124000DC01CB01FE01E655FF4F80839183A28331
:10125000B3838E010A551F4FFE01E655FF4F608193
:1012600071818281938120E030E04AE755E40E9459
:10127000B320DC01CB01F80180839183A283B38387
:10128000FE01EA55FF4F608171818281938120E0E8
:1012900030E040E85FE30E94B922882344F4FE0175
:1012A000EC55FF4F81E090E09183808364C0FE01A4
:1012B000EA55FF4F608171818281938120E03FEF89
:1012C0004FE757E40E94592218160CF043C0FE0164
:1012D000E655FF4F608171818281938120E030E08B
:1012E00040E251E40E94B320DC01CB018E010C5599
:1012F0001F4FBC01CD010E94DD1EDC01CB01F801B6
:10130000918380831FC0FE01EE55FF4F80E991E07D
:1013100091838083FE01EE55FF4F8081918101977B
:10132000F1F7FE01EE55FF4F91838083DE01AC554E
:10133000BF4FFE01EC55FF4F8081918101971196BF
:101340009C938E93FE01EC55FF4F80819181009715
:10135000D1F64BC08E010C551F4FFE01EA55FF4FD1
:1013600060817181828193810E94DD1EDC01CB014D
:10137000F80191838083DE01A056BF4FFE01EC553A
:10138000FF4F8081918111969C938E93FE01E056D0
:10139000FF4F808191810197F1F7FE01E056FF4FE9
:1013A0009183808322C08E0102551F4FFE01E155BB
:1013B000FF4F60817181828193810E94DD1EDC017B
:1013C000CB01F8018083DE01A156BF4FFE01E2553B
:1013D000FF4F80818C93FE01E156FF4F80818A95FB
:1013E000F1F7FE01E156FF4F808380E30E94D111A7
:1013F000FE01E556FF4F80E090E0A8E4B3E480836F
:101400009183A283B3838E0109561F4FFE01E556D7
:10141000FF4F60817181828193812BEA3AEA4AEA27
:1014200050E40E94B320DC01CB01F801808391835A
:10143000A283B383FE01E956FF4F608171818281EF
:10144000938120E030E040E85FE30E94B9228823E6
:1014500034F4FE01EA56FF4F81E08083E0C0FE01D4
:10146000E956FF4F608171818281938120E030E0F5
:101470004FE753E40E94592218160CF0C0C0FE0139
:10148000E556FF4F608171818281938120E030E0D9
:101490004AE754E40E94AD21DC01CB01FE01EE5687
:1014A000FF4F80839183A283B3838E0102571F4F26
:1014B000FE01EE56FF4F608171818281938120E0B1
:1014C00030E04AE755E40E94B320DC01CB01F8018B
:1014D00080839183A283B383FE01E257FF4F608133
:1014E00071818281938120E030E040E85FE30E94D7
:1014F000B922882344F4FE01E457FF4F81E090E0D5
:101500009183808364C0FE01E257FF4F6081718147
:101510008281938120E03FEF4FE757E40E945922F8
:1015200018160CF043C0FE01EE56FF4F608171812A
:101530008281938120E030E040E251E40E94B320B8
:10154000DC01CB018E0104571F4FBC01CD010E946D
:10155000DD1EDC01CB01F801918380831FC0FE01F9
:10156000E657FF4F80E991E091838083FE01E657C3
:10157000FF4F808191810197F1F7FE01E657FF4F00
:1015800091838083DE01A457BF4FFE01E457FF4FD4
:1015900080819181019711969C938E93FE01E4576F
:1015A000FF4F808191810097D1F64BC08E01045787
:1015B0001F4FFE01E257FF4F60817181828193814D
:1015C0000E94DD1EDC01CB01F80191838083DE01E6
:1015D000A857BF4FFE01E457FF4F808191811196BC
:1015E0009C938E93FE01E857FF4F80819181019774
:1015F000F1F7FE01E857FF4F9183808322C08E01EF
:101600000A561F4FFE01E956FF4F608171818281AA
:1016100093810E94DD1EDC01CB01F8018083DE0195
:10162000A957BF4FFE01EA56FF4F80818C93FE0100
:10163000E957FF4F80818A95F1F7FE01E957FF4F87
:10164000808388E20E94D111FE01ED57FF4F80E0B8
:1016500090E0A0EAB2E480839183A283B3838E01F9
:1016600001581F4FFE01ED57FF4F6081718182814C
:1016700093812BEA3AEA4AEA50E40E94B320DC0163
:10168000CB01F80180839183A283B383FE01E158EB
:10169000FF4F608171818281938120E030E040E8DA
:1016A0005FE30E94B922882334F4FE01E258FF4F21
:1016B00081E08083E0C0FE01E158FF4F60817181CD
:1016C0008281938120E030E04FE753E40E94592269
:1016D00018160CF0C0C0FE01ED57FF4F60817181FC
:1016E0008281938120E030E04AE754E40E94AD21FA
:1016F000DC01CB01FE01E658FF4F80839183A2837A
:10170000B3838E010A581F4FFE01E658FF4F6081D8
:1017100071818281938120E030E04AE755E40E94A4
:10172000B320DC01CB01F80180839183A283B383D2
:10173000FE01EA58FF4F608171818281938120E030
:1017400030E040E85FE30E94B922882344F4FE01C0
:10175000EC58FF4F81E090E09183808364C0FE01EC
:10176000EA58FF4F608171818281938120E03FEFD1
:101770004FE757E40E94592218160CF043C0FE01AF
:10178000E658FF4F608171818281938120E030E0D3
:1017900040E251E40E94B320DC01CB018E010C58E1
:1017A0001F4FBC01CD010E94DD1EDC01CB01F80101
:1017B000918380831FC0FE01EE58FF4F80E991E0C6
:1017C00091838083FE01EE58FF4F808191810197C4
:1017D000F1F7FE01EE58FF4F91838083DE01AC5894
:1017E000BF4FFE01EC58FF4F808191810197119608
:1017F0009C938E93FE01EC58FF4F8081918100975E
:10180000D1F64BC08E010C581F4FFE01EA58FF4F16
:1018100060817181828193810E94DD1EDC01CB0198
:10182000F80191838083DE01A059BF4FFE01EC587F
:10183000FF4F8081918111969C938E93FE01E05918
:10184000FF4F808191810197F1F7FE01E059FF4F31
:101850009183808322C08E0102581F4FFE01E15800
:10186000FF4F60817181828193810E94DD1EDC01C6
:10187000CB01F8018083DE01A159BF4FFE01E25880
:10188000FF4F80818C93FE01E159FF4F80818A9543
:10189000F1F7FE01E159FF4F808388E20E94B11108
:1018A000FE01E559FF4F80E090E0A0EAB2E48083BA
:1018B0009183A283B3838E0109591F4FFE01E5591D
:1018C000FF4F60817181828193812BEA3AEA4AEA73
:1018D00050E40E94B320DC01CB01F80180839183A6
:1018E000A283B383FE01E959FF4F60817181828138
:1018F000938120E030E040E85FE30E94B922882332
:1019000034F4FE01EA59FF4F81E08083E0C0FE011C
:10191000E959FF4F608171818281938120E030E03D
:101920004FE753E40E94592218160CF0C0C0FE0184
:10193000E559FF4F608171818281938120E030E021
:101940004AE754E40E94AD21DC01CB01FE01EE59CF
:10195000FF4F80839183A283B3838E01025A1F4F6E
:10196000FE01EE59FF4F608171818281938120E0F9
:1019700030E04AE755E40E94B320DC01CB01F801D6
:1019800080839183A283B383FE01E25AFF4F60817B
:1019900071818281938120E030E040E85FE30E9422
:1019A000B922882344F4FE01E45AFF4F81E090E01D
:1019B0009183808364C0FE01E25AFF4F6081718190
:1019C0008281938120E03FEF4FE757E40E94592244
:1019D00018160CF043C0FE01EE59FF4F6081718173
:1019E0008281938120E030E040E251E40E94B32004
:1019F000DC01CB018E01045A1F4FBC01CD010E94B6
:101A0000DD1EDC01CB01F801918380831FC0FE0144
:101A1000E65AFF4F80E991E091838083FE01E65A08
:101A2000FF4F808191810197F1F7FE01E65AFF4F48
:101A300091838083DE01A45ABF4FFE01E45AFF4F19
:101A400080819181019711969C938E93FE01E45AB7
:101A5000FF4F808191810097D1F64BC08E01045ACF
:101A60001F4FFE01E25AFF4F608171818281938195
:101A70000E94DD1EDC01CB01F80191838083DE0131
:101A8000A85ABF4FFE01E45AFF4F80819181119601
:101A90009C938E93FE01E85AFF4F808191810197BC
:101AA000F1F7FE01E85AFF4F9183808322C08E0137
:101AB0000A591F4FFE01E959FF4F608171818281F0
:101AC00093810E94DD1EDC01CB01F8018083DE01E1
:101AD000A95ABF4FFE01EA59FF4F80818C93FE0146
:101AE000E95AFF4F80818A95F1F7FE01E95AFF4FCD
:101AF000808388E00E94B111FE01ED5AFF4F80E023
:101B000090E0A0EAB2E480839183A283B3838E0144
:101B1000015B1F4FFE01ED5AFF4F60817181828191
:101B200093812BEA3AEA4AEA50E40E94B320DC01AE
:101B3000CB01F80180839183A283B383FE01E15B33
:101B4000FF4F608171818281938120E030E040E825
:101B50005FE30E94B922882334F4FE01E25BFF4F69
:101B600081E08083E0C0FE01E15BFF4F6081718115
:101B70008281938120E030E04FE753E40E945922B4
:101B800018160CF0C0C0FE01ED5AFF4F6081718144
:101B90008281938120E030E04AE754E40E94AD2145
:101BA000DC01CB01FE01E65BFF4F80839183A283C2
:101BB000B3838E010A5B1F4FFE01E65BFF4F60811E
:101BC00071818281938120E030E04AE755E40E94F0
:101BD000B320DC01CB01F80180839183A283B3831E
:101BE000FE01EA5BFF4F608171818281938120E079
:101BF00030E040E85FE30E94B922882344F4FE010C
:101C0000EC5BFF4F81E090E09183808364C0FE0134
:101C1000EA5BFF4F608171818281938120E03FEF19
:101C20004FE757E40E94592218160CF043C0FE01FA
:101C3000E65BFF4F608171818281938120E030E01B
:101C400040E251E40E94B320DC01CB018E010C5B29
:101C50001F4FBC01CD010E94DD1EDC01CB01F8014C
:101C6000918380831FC0FE01EE5BFF4F80E991E00E
:101C700091838083FE01EE5BFF4F8081918101970C
:101C8000F1F7FE01EE5BFF4F91838083DE01AC5BD9
:101C9000BF4FFE01EC5BFF4F808191810197119650
:101CA0009C938E93FE01EC5BFF4F808191810097A6
:101CB000D1F642C08E010C5B1F4FFE01EA5BFF4F65
:101CC00060817181828193810E94DD1EDC01CB01E4
:101CD000F80191838083DE01A05CBF4FFE01EC5BC5
:101CE000FF4F8081918111969C938E93FE01E05C61
:101CF000FF4F808191810197F1F7FE01E05CFF4F7A
:101D00009183808319C08E01025B1F4FFE01E15B4E
:101D1000FF4F60817181828193810E94DD1EDC0111
:101D2000CB01F8018083FE01E25BFF4F80818FAF22
:101D30008FAD8A95F1F78FAF81E00E94B11180E0FD
:101D400090E0A0E8B0E48BAF9CAFADAFBEAF6BADA1
:101D50007CAD8DAD9EAD20E030E04AE755E40E94B9
:101D6000B320DC01CB018FAB98AFA9AFBAAF6FA99D
:101D700078AD89AD9AAD20E030E040E85FE30E94A5
:101D8000B92288232CF481E090E09EAB8DAB3FC05C
:101D90006FA978AD89AD9AAD20E03FEF4FE757E4EA
:101DA0000E94592218164CF56BAD7CAD8DAD9EADE1
:101DB00020E030E040E251E40E94B320DC01CB019E
:101DC000BC01CD010E94DD1EDC01CB019EAB8DABC1
:101DD0000FC080E991E09CAB8BAB8BA99CA90197CC
:101DE000F1F79CAB8BAB8DA99EA901979EAB8DABF8
:101DF0008DA99EA9009769F714C06FA978AD89AD28
:101E00009AAD0E94DD1EDC01CB019EAB8DAB8DA98E
:101E10009EA99AAB89AB89A99AA90197F1F79AABC8
:101E200089AB86E00E94B11180E090E0A0EAB2E4C4
:101E30008DA79EA7AFA7B8AB6DA57EA58FA598A9C6
:101E40002BEA3AEA4AEA50E40E94B320DC01CB01D3
:101E500089A79AA7ABA7BCA769A57AA58BA59CA5BE
:101E600020E030E040E85FE30E94B92288231CF4C0
:101E700081E088A791C069A57AA58BA59CA520E0E3
:101E800030E04FE753E40E94592218160CF07BC053
:101E90006DA57EA58FA598A920E030E04AE754E41F
:101EA0000E94AD21DC01CB018CA39DA3AEA3BFA3F7
:101EB0006CA17DA18EA19FA120E030E04AE755E40E
:101EC0000E94B320DC01CB0188A399A3AAA3BBA3E2
:101ED00068A179A18AA19BA120E030E040E85FE3FE
:101EE0000E94B92288232CF481E090E09F8F8E8F8E
:101EF0003FC068A179A18AA19BA120E03FEF4FE7F5
:101F000057E40E94592218164CF56CA17DA18EA1B0
:101F10009FA120E030E040E251E40E94B320DC01C8
:101F2000CB01BC01CD010E94DD1EDC01CB019F8FE6
:101F30008E8F0FC080E991E09D8F8C8F8C8D9D8D51
:101F40000197F1F79D8F8C8F8E8D9F8D01979F8FBD
:101F50008E8F8E8D9F8D009769F724C068A179A11F
:101F60008AA19BA10E94DD1EDC01CB019F8F8E8F79
:101F70008E8D9F8D9B8F8A8F8A8D9B8D0197F1F718
:101F80009B8F8A8F0FC069A57AA58BA59CA50E94FF
:101F9000DD1EDC01CB0188A788A5898F898D8A95F4
:101FA000F1F7898F8CE00E94B11180E090E0A0EA07
:101FB000B2E48D8B9E8BAF8BB88F6D897E898F89B4
:101FC000988D2BEA3AEA4AEA50E40E94B320DC01F9
:101FD000CB01898B9A8BAB8BBC8B69897A898B8976
:101FE0009C8920E030E040E85FE30E94B92288232A
:101FF0001CF481E0888B91C069897A898B899C89DE
:1020000020E030E04FE753E40E94592218160CF00C
:102010007BC06D897E898F89988D20E030E04AE70A
:1020200054E40E94AD21DC01CB018C879D87AE87F3
:10203000BF876C857D858E859F8520E030E04AE7EF
:1020400055E40E94B320DC01CB0188879987AA87D9
:10205000BB87688579858A859B8520E030E040E8EC
:102060005FE30E94B92288232CF481E090E09F83F3
:102070008E833FC0688579858A859B8520E03FEF08
:102080004FE757E40E94592218164CF56C857D8560
:102090008E859F8520E030E040E251E40E94B3202D
:1020A000DC01CB01BC01CD010E94DD1EDC01CB01B6
:1020B0009F838E830FC080E991E09D838C838C8108
:1020C0009D810197F1F79D838C838E819F8101977C
:1020D0009F838E838E819F81009769F724C06885D6
:1020E00079858A859B850E94DD1EDC01CB019F835B
:1020F0008E838E819F819B838A838A819B810197B6
:10210000F1F79B838A830FC069897A898B899C89BF
:102110000E94DD1EDC01CB01888B8889898389813F
:102120008A95F1F78983CE52DF4F0FB6F894DEBF60
:102130000FBECDBFCF91DF911F910F910895DF9317
:10214000CF93CDB7DEB76C970FB6F894DEBF0FBE56
:10215000CDBF9C8F8B8F1A8E198ECEC0898D9A8D94
:102160009C018B8D9C8DFC01E20FF31F80810E94EE
:102170009111898D9A8D01969A8F898F80E090E0D8
:10218000A0EAB2E48D8B9E8BAF8BB88F6D897E8970
:102190008F89988D2BEA3AEA4AEA50E40E94B320EC
:1021A000DC01CB01898B9A8BAB8BBC8B69897A89DB
:1021B0008B899C8920E030E040E85FE30E94B922EF
:1021C00088231CF481E0888B91C069897A898B8986
:1021D0009C8920E030E04FE753E40E945922181612
:1021E0000CF07BC06D897E898F89988D20E030E06E
:1021F0004AE754E40E94AD21DC01CB018C879D8726
:10220000AE87BF876C857D858E859F8520E030E019
:102210004AE755E40E94B320DC01CB018887998707
:10222000AA87BB87688579858A859B8520E030E011
:1022300040E85FE30E94B92288232CF481E090E01B
:102240009F838E833FC0688579858A859B8520E042
:102250003FEF4FE757E40E94592218164CF56C8562
:102260007D858E859F8520E030E040E251E40E942C
:10227000B320DC01CB01BC01CD010E94DD1EDC01DD
:10228000CB019F838E830FC080E991E09D838C8377
:102290008C819D810197F1F79D838C838E819F8135
:1022A00001979F838E838E819F81009769F724C059
:1022B000688579858A859B850E94DD1EDC01CB01BE
:1022C0009F838E838E819F819B838A838A819B815A
:1022D0000197F1F79B838A830FC069897A898B897B
:1022E0009C890E94DD1EDC01CB01888B8889898353
:1022F00089818A95F1F78983898D9A8D9C018B8DCF
:102300009C8DFC01E20FF31F8081882309F026CF0A
:102310006C960FB6F894DEBF0FBECDBFCF91DF91A4
:102320000895DF93CF930F92CDB7DEB78983A8E2EC
:10233000B0E0E8E2F0E0808184608C93A8E2B0E055
:10234000E8E2F0E080818E7F8C9389810E94D11138
:1023500089818295807F0E94D1110F90CF91DF916A
:102360000895DF93CF930F92CDB7DEB78983A8E2AC
:10237000B0E0E8E2F0E080818B7F8C93A8E2B0E0EF
:10238000E8E2F0E080818E7F8C9389810E94D111F8
:1023900089818295807F0E94D1110F90CF91DF912A
:1023A0000895DF93CF93CDB7DEB7E1970FB6F894DA
:1023B000DEBF0FBECDBF89ABA5E2B0E0E5E2F0E045
:1023C00080818D7F8C9389A988233CF4A5E2B0E0BD
:1023D000E5E2F0E0808182608C93A5E2B0E0E5E286
:1023E000F0E080818B7F8C9389A9882F90E08074A6
:1023F0009070009739F0A5E2B0E0E5E2F0E080816E
:1024000084608C93A5E2B0E0E5E2F0E08081877F14
:102410008C9389A9882F90E080729070009739F092
:10242000A5E2B0E0E5E2F0E0808188608C93A5E26F
:10243000B0E0E5E2F0E080818F7E8C9389A9882F5F
:1024400090E080719070009739F0A5E2B0E0E5E28D
:10245000F0E0808180618C93A8E2B0E0E8E2F0E0F7
:10246000808181608C9380E090E0A0E8BFE38DA73D
:102470009EA7AFA7B8AB6DA57EA58FA598A92BEA9F
:102480003AEA4AEA50E40E94B320DC01CB0189A772
:102490009AA7ABA7BCA769A57AA58BA59CA520E0A8
:1024A00030E040E85FE30E94B92288231CF481E019
:1024B00088A791C069A57AA58BA59CA520E030E0EE
:1024C0004FE753E40E94592218160CF07BC06DA50B
:1024D0007EA58FA598A920E030E04AE754E40E9449
:1024E000AD21DC01CB018CA39DA3AEA3BFA36CA146
:1024F0007DA18EA19FA120E030E04AE755E40E9433
:10250000B320DC01CB0188A399A3AAA3BBA368A134
:1025100079A18AA19BA120E030E040E85FE30E941E
:10252000B92288232CF481E090E09F8F8E8F3FC0EA
:1025300068A179A18AA19BA120E03FEF4FE757E472
:102540000E94592218164CF56CA17DA18EA19FA165
:1025500020E030E040E251E40E94B320DC01CB01F6
:10256000BC01CD010E94DD1EDC01CB019F8F8E8F4F
:102570000FC080E991E09D8F8C8F8C8D9D8D019790
:10258000F1F79D8F8C8F8E8D9F8D01979F8F8E8FF2
:102590008E8D9F8D009769F724C068A179A18AA1CB
:1025A0009BA10E94DD1EDC01CB019F8F8E8F8E8D43
:1025B0009F8D9B8F8A8F8A8D9B8D0197F1F79B8FC3
:1025C0008A8F0FC069A57AA58BA59CA50E94DD1EE8
:1025D000DC01CB0188A788A5898F898D8A95F1F7C1
:1025E000898FA8E2B0E0E8E2F0E080818E7F8C93F2
:1025F00080E090E0A0E8BFE38D8B9E8BAF8BB88F1F
:102600006D897E898F89988D2BEA3AEA4AEA50E4EF
:102610000E94B320DC01CB01898B9A8BAB8BBC8BE6
:1026200069897A898B899C8920E030E040E85FE302
:102630000E94B92288231CF481E0888B91C06989AB
:102640007A898B899C8920E030E04FE753E40E942F
:10265000592218160CF07BC06D897E898F89988D60
:1026600020E030E04AE754E40E94AD21DC01CB01D8
:102670008C879D87AE87BF876C857D858E859F857E
:1026800020E030E04AE755E40E94B320DC01CB01B2
:1026900088879987AA87BB87688579858A859B857E
:1026A00020E030E040E85FE30E94B92288232CF468
:1026B00081E090E09F838E833FC0688579858A851D
:1026C0009B8520E03FEF4FE757E40E945922181600
:1026D0004CF56C857D858E859F8520E030E040E25D
:1026E00051E40E94B320DC01CB01BC01CD010E946A
:1026F000DD1EDC01CB019F838E830FC080E991E05A
:102700009D838C838C819D810197F1F79D838C83C0
:102710008E819F8101979F838E838E819F810097F9
:1027200069F724C0688579858A859B850E94DD1EAE
:10273000DC01CB019F838E838E819F819B838A8363
:102740008A819B810197F1F79B838A830FC06989F6
:102750007A898B899C890E94DD1EDC01CB01888BE4
:102760008889898389818A95F1F78983E1960FB6F3
:10277000F894DEBF0FBECDBFCF91DF910895DF93F8
:10278000CF93CDB7DEB72C970FB6F894DEBF0FBE50
:10279000CDBF9C878B878B859C859E012F5F3F4F8C
:1027A000B9014AE050E00E944125CE0101960E9405
:1027B0009F102C960FB6F894DEBF0FBECDBFCF9101
:1027C000DF910895DF93CF9300D0CDB7DEB7898333
:1027D0006A838A81882321F4898180680E94B111EB
:1027E0008A81813029F48981805C80680E94B111DE
:1027F0008A81823029F489818C5E80680E94B111BF
:102800008A81833029F489818C5A80680E94B111B1
:102810000F900F90CF91DF910895DF93CF93CDB7B5
:10282000DEB781E00E94B111CF91DF9108950F933F
:102830001F93DF93CF93CDB7DEB7C05ED0400FB606
:10284000F894DEBF0FBECDBF0E940D1480E060E0A3
:102850000E94E21383E691E00E949F1080E061E015
:102860000E94E21384E791E00E949F1080E063E001
:102870000E94E21381E891E00E949F108EE891E0AF
:102880000E949F10FE01E352FF4F80E090E0A8EC11
:10289000B2E480839183A283B3838E0107521F4FDA
:1028A000FE01E352FF4F608171818281938120E0BC
:1028B00030E04AE755E40E94B320DC01CB01F80187
:1028C00080839183A283B383FE01E752FF4F60812F
:1028D00071818281938120E030E040E85FE30E94D3
:1028E000B922882344F4FE01E952FF4F81E090E0D1
:1028F0009183808364C0FE01E752FF4F6081718144
:102900008281938120E03FEF4FE757E40E945922F4
:1029100018160CF043C0FE01E352FF4F6081718135
:102920008281938120E030E040E251E40E94B320B4
:10293000DC01CB018E0109521F4FBC01CD010E9469
:10294000DD1EDC01CB01F801918380831FC0FE01F5
:10295000EB52FF4F80E991E091838083FE01EB52BF
:10296000FF4F808191810197F1F7FE01EB52FF4FFC
:1029700091838083DE01A952BF4FFE01E952FF4FD0
:1029800080819181019711969C938E93FE01E9526B
:10299000FF4F808191810097D1F627C08E010952A7
:1029A0001F4FFE01E752FF4F608171818281938149
:1029B0000E94DD1EDC01CB01F80191838083DE01E2
:1029C000AD52BF4FFE01E952FF4F808191818D933F
:1029D0009C93FE01ED52FF4F808191810197F1F7A9
:1029E000FE01ED52FF4F918380838EE891E00E94BB
:1029F0009F10FE01E153FF4F80E090E0A6E1B3E4B9
:102A000080839183A283B3838E0105531F4FFE0100
:102A1000E153FF4F608171818281938120E030E03A
:102A20004AE755E40E94B320DC01CB01F801808322
:102A30009183A283B383FE01E553FF4F60817181CF
:102A40008281938120E030E040E85FE30E94B92278
:102A5000882344F4FE01E753FF4F81E090E0918327
:102A6000808364C0FE01E553FF4F608171818281E4
:102A7000938120E03FEF4FE757E40E945922181658
:102A80000CF043C0FE01E153FF4F608171818281F0
:102A9000938120E030E040E251E40E94B320DC0169
:102AA000CB018E0107531F4FBC01CD010E94DD1EDB
:102AB000DC01CB01F801918380831FC0FE01E95343
:102AC000FF4F80E991E091838083FE01E953FF4F3E
:102AD000808191810197F1F7FE01E953FF4F9183C6
:102AE0008083DE01A753BF4FFE01E753FF4F808174
:102AF0009181019711969C938E93FE01E753FF4FAE
:102B0000808191810097D1F627C08E0107531F4F16
:102B1000FE01E553FF4F60817181828193810E94A4
:102B2000DD1EDC01CB01F80191838083DE01AB5314
:102B3000BF4FFE01E753FF4F808191818D939C939E
:102B4000FE01EB53FF4F808191810197F1F7FE0168
:102B5000EB53FF4F918380838EE891E00E949F109A
:102B6000FE01EF53FF4F80E090E0A8E4B3E48083E0
:102B70009183A283B3838E0103541F4FFE01EF5351
:102B8000FF4F608171818281938120E030E04AE7CC
:102B900055E40E94B320DC01CB01F80180839183CE
:102BA000A283B383FE01E354FF4F60817181828170
:102BB000938120E030E040E85FE30E94B92288235F
:102BC00044F4FE01E554FF4F81E090E0918380835F
:102BD00064C0FE01E354FF4F608171818281938163
:102BE00020E03FEF4FE757E40E94592218160CF0FF
:102BF00043C0FE01EF53FF4F608171818281938159
:102C000020E030E040E251E40E94B320DC01CB013F
:102C10008E0105541F4FBC01CD010E94DD1EDC0159
:102C2000CB01F801918380831FC0FE01E754FF4F61
:102C300080E991E091838083FE01E754FF4F80811A
:102C400091810197F1F7FE01E754FF4F9183808353
:102C5000DE01A554BF4FFE01E554FF4F80819181F5
:102C6000019711969C938E93FE01E554FF4F80814E
:102C700091810097D1F627C08E0105541F4FFE01A8
:102C8000E354FF4F60817181828193810E94DD1E38
:102C9000DC01CB01F80191838083DE01A954BF4F91
:102CA000FE01E554FF4F808191818D939C93FE013D
:102CB000E954FF4F808191810197F1F7FE01E954BA
:102CC000FF4F918380838EE891E00E949F10FE0168
:102CD000ED54FF4F80E090E0AAE7B3E48083918356
:102CE000A283B3838E0101551F4FFE01ED54FF4FA8
:102CF000608171818281938120E030E04AE755E470
:102D00000E94B320DC01CB01F80180839183A28370
:102D1000B383FE01E155FF4F608171818281938110
:102D200020E030E040E85FE30E94B922882344F4C9
:102D3000FE01E355FF4F81E090E09183808364C002
:102D4000FE01E155FF4F608171818281938120E016
:102D50003FEF4FE757E40E94592218160CF043C08A
:102D6000FE01ED54FF4F608171818281938120E0EB
:102D700030E040E251E40E94B320DC01CB018E013F
:102D800003551F4FBC01CD010E94DD1EDC01CB01AC
:102D9000F801918380831FC0FE01E555FF4F80E954
:102DA00091E091838083FE01E555FF4F8081918101
:102DB0000197F1F7FE01E555FF4F91838083DE0116
:102DC000A355BF4FFE01E355FF4F808191810197CD
:102DD00011969C938E93FE01E355FF4F8081918164
:102DE0000097D1F627C08E0103551F4FFE01E15514
:102DF000FF4F60817181828193810E94DD1EDC0121
:102E0000CB01F80191838083DE01A755BF4FFE01FE
:102E1000E355FF4F808191818D939C93FE01E7558F
:102E2000FF4F808191810197F1F7FE01E755FF4F38
:102E3000918380838EE891E00E949F10FE01EB5504
:102E4000FF4F80E090E0A6E9B3E480839183A28302
:102E5000B3838E010F551F4FFE01EB55FF4F60816D
:102E600071818281938120E030E04AE755E40E943D
:102E7000B320DC01CB01F80180839183A283B3836B
:102E8000FE01EF55FF4F608171818281938120E0C7
:102E900030E040E85FE30E94B922882344F4FE0159
:102EA000E156FF4F81E090E09183808364C0FE0192
:102EB000EF55FF4F608171818281938120E03FEF68
:102EC0004FE757E40E94592218160CF043C0FE0148
:102ED000EB55FF4F608171818281938120E030E06A
:102EE00040E251E40E94B320DC01CB018E01015687
:102EF0001F4FBC01CD010E94DD1EDC01CB01F8019A
:102F0000918380831FC0FE01E356FF4F80E991E06B
:102F100091838083FE01E356FF4F80819181019769
:102F2000F1F7FE01E356FF4F91838083DE01A15646
:102F3000BF4FFE01E156FF4F8081918101971196AD
:102F40009C938E93FE01E156FF4F80819181009703
:102F5000D1F627C08E0101561F4FFE01EF55FF4FDE
:102F600060817181828193810E94DD1EDC01CB0131
:102F7000F80191838083DE01A556BF4FFE01E15623
:102F8000FF4F808191818D939C93FE01E556FF4F09
:102F9000808191810197F1F7FE01E556FF4F918302
:102FA000808380E063E00E94E21380E991E00E9468
:102FB0009F1080E063E00E94E21381E891E00E94AC
:102FC0009F108EE891E00E949F10FE01E956FF4F8E
:102FD00080E090E0AFEAB3E480839183A283B3837F
:102FE0008E010D561F4FFE01E956FF4F6081718122
:102FF0008281938120E030E04AE755E40E94B320CB
:10300000DC01CB01F80180839183A283B383FE01AD
:10301000ED56FF4F608171818281938120E030E025
:1030200040E85FE30E94B922882344F4FE01EF5692
:10303000FF4F81E090E09183808364C0FE01ED56F4
:10304000FF4F608171818281938120E03FEF4FE7E4
:1030500057E40E94592218160CF043C0FE01E956AD
:10306000FF4F608171818281938120E030E040E2F6
:1030700051E40E94B320DC01CB018E010F561F4F9B
:10308000BC01CD010E94DD1EDC01CB01F801918362
:1030900080831FC0FE01E157FF4F80E991E09183DB
:1030A0008083FE01E157FF4F808191810197F1F705
:1030B000FE01E157FF4F91838083DE01AF56BF4F82
:1030C000FE01EF56FF4F80819181019711969C93ED
:1030D0008E93FE01EF56FF4F808191810097D1F6CC
:1030E00027C08E010F561F4FFE01ED56FF4F608126
:1030F0007181828193810E94DD1EDC01CB01F80188
:1031000091838083DE01A357BF4FFE01EF56FF4F2F
:10311000808191818D939C93FE01E357FF4F8081C5
:1031200091810197F1F7FE01E357FF4F918380836F
:103130008EE891E00E949F10FE01E757FF4F80E06C
:1031400090E0A8ECB3E480839183A283B3838E01E3
:103150000B571F4FFE01E757FF4F6081718182813E
:10316000938120E030E04AE755E40E94B320DC017F
:10317000CB01F80180839183A283B383FE01EB57D7
:10318000FF4F608171818281938120E030E040E8CF
:103190005FE30E94B922882344F4FE01ED57FF4FFC
:1031A00081E090E09183808364C0FE01EB57FF4F84
:1031B000608171818281938120E03FEF4FE757E486
:1031C0000E94592218160CF043C0FE01E757FF4F2A
:1031D000608171818281938120E030E040E251E49E
:1031E0000E94B320DC01CB018E010D571F4FBC01A3
:1031F000CD010E94DD1EDC01CB01F80191838083AB
:103200001FC0FE01EF57FF4F80E991E0918380835B
:10321000FE01EF57FF4F808191810197F1F7FE0189
:10322000EF57FF4F91838083DE01AD57BF4FFE0103
:10323000ED57FF4F80819181019711969C938E935A
:10324000FE01ED57FF4F808191810097D1F627C095
:103250008E010D571F4FFE01EB57FF4F60817181AB
:10326000828193810E94DD1EDC01CB01F8019183F4
:103270008083DE01A158BF4FFE01ED57FF4F8081D3
:1032800091818D939C93FE01E158FF4F8081918144
:103290000197F1F7FE01E158FF4F918380838EE89B
:1032A00091E00E949F10FE01E558FF4F80E090E002
:1032B000A1EEB3E480839183A283B3838E01095886
:1032C0001F4FFE01E558FF4F60817181828193811C
:1032D00020E030E04AE755E40E94B320DC01CB0156
:1032E000F80180839183A283B383FE01E958FF4FE5
:1032F000608171818281938120E030E040E85FE36A
:103300000E94B922882344F4FE01EB58FF4F81E06C
:1033100090E09183808364C0FE01E958FF4F608193
:1033200071818281938120E03FEF4FE757E40E9453
:10333000592218160CF043C0FE01E558FF4F60817A
:1033400071818281938120E030E040E251E40E946B
:10335000B320DC01CB018E010B581F4FBC01CD0106
:103360000E94DD1EDC01CB01F801918380831FC028
:10337000FE01ED58FF4F80E991E091838083FE01CB
:10338000ED58FF4F808191810197F1F7FE01ED58D3
:10339000FF4F91838083DE01AB58BF4FFE01EB5896
:1033A000FF4F80819181019711969C938E93FE012E
:1033B000EB58FF4F808191810097D1F627C08E0195
:1033C0000B581F4FFE01E958FF4F608171818281C8
:1033D00093810E94DD1EDC01CB01F8019183808383
:1033E000DE01AF58BF4FFE01EB58FF4F8081918146
:1033F0008D939C93FE01EF58FF4F8081918101973F
:10340000F1F7FE01EF58FF4F918380838EE891E042
:103410000E949F10FE01E359FF4F80E090E0AAEF69
:10342000B3E480839183A283B3838E0107591F4F36
:10343000FE01E359FF4F608171818281938120E019
:1034400030E04AE755E40E94B320DC01CB01F801EB
:1034500080839183A283B383FE01E759FF4F60818C
:1034600071818281938120E030E040E85FE30E9437
:10347000B922882344F4FE01E959FF4F81E090E02E
:103480009183808364C0FE01E759FF4F60817181A1
:103490008281938120E03FEF4FE757E40E94592259
:1034A00018160CF043C0FE01E359FF4F6081718193
:1034B0008281938120E030E040E251E40E94B32019
:1034C000DC01CB018E0109591F4FBC01CD010E94C7
:1034D000DD1EDC01CB01F801918380831FC0FE015A
:1034E000EB59FF4F80E991E091838083FE01EB5916
:1034F000FF4F808191810197F1F7FE01EB59FF4F5A
:1035000091838083DE01A959BF4FFE01E959FF4F26
:1035100080819181019711969C938E93FE01E959C8
:10352000FF4F808191810097D1F627C08E01095904
:103530001F4FFE01E759FF4F6081718182819381A6
:103540000E94DD1EDC01CB01F80191838083DE0146
:10355000AD59BF4FFE01E959FF4F808191818D9395
:103560009C93FE01ED59FF4F808191810197F1F706
:10357000FE01ED59FF4F918380838EE891E00E9418
:103580009F10FE01E15AFF4F80E090E8A9E0B4E40B
:1035900080839183A283B3838E01055A1F4FFE015E
:1035A000E15AFF4F608171818281938120E030E098
:1035B0004AE755E40E94B320DC01CB01F801808387
:1035C0009183A283B383FE01E55AFF4F608171812D
:1035D0008281938120E030E040E85FE30E94B922DD
:1035E000882344F4FE01E75AFF4F81E090E0918385
:1035F000808364C0FE01E55AFF4F60817181828142
:10360000938120E03FEF4FE757E40E9459221816BC
:103610000CF043C0FE01E15AFF4F6081718182814D
:10362000938120E030E040E251E40E94B320DC01CD
:10363000CB018E01075A1F4FBC01CD010E94DD1E38
:10364000DC01CB01F801918380831FC0FE01E95AA0
:10365000FF4F80E991E091838083FE01E95AFF4F9B
:10366000808191810197F1F7FE01E95AFF4F918323
:103670008083DE01A75ABF4FFE01E75AFF4F8081CA
:103680009181019711969C938E93FE01E75AFF4F0B
:10369000808191810097D1F627C08E01075A1F4F74
:1036A000FE01E55AFF4F60817181828193810E9402
:1036B000DD1EDC01CB01F80191838083DE01AB5A72
:1036C000BF4FFE01E75AFF4F808191818D939C93FC
:1036D000FE01EB5AFF4F808191810197F1F7FE01C6
:1036E000EB5AFF4F9183808380E063E00E94E213F6
:1036F00080E991E00E949F1080E063E00E94E21365
:1037000081E891E00E949F108EE891E00E949F1056
:10371000FE01EF5AFF4F80E090E0AAEFB3E4808310
:103720009183A283B3838E01035B1F4FFE01EF5A87
:10373000FF4F608171818281938120E030E04AE710
:1037400055E40E94B320DC01CB01F8018083918312
:10375000A283B383FE01E35BFF4F608171818281AD
:10376000938120E030E040E85FE30E94B9228823A3
:1037700044F4FE01E55BFF4F81E090E0918380839C
:1037800064C0FE01E35BFF4F6081718182819381A0
:1037900020E03FEF4FE757E40E94592218160CF043
:1037A00043C0FE01EF5AFF4F608171818281938196
:1037B00020E030E040E251E40E94B320DC01CB0184
:1037C0008E01055B1F4FBC01CD010E94DD1EDC0197
:1037D000CB01F801918380831FC0FE01E75BFF4F9F
:1037E00080E991E091838083FE01E75BFF4F808158
:1037F00091810197F1F7FE01E75BFF4F9183808391
:10380000DE01A55BBF4FFE01E55BFF4F808191812B
:10381000019711969C938E93FE01E55BFF4F80818B
:1038200091810097D1F627C08E01055B1F4FFE01E5
:10383000E35BFF4F60817181828193810E94DD1E75
:10384000DC01CB01F80191838083DE01A95BBF4FCE
:10385000FE01E55BFF4F808191818D939C93FE017A
:10386000E95BFF4F808191810197F1F7FE01E95BF0
:10387000FF4F918380838EE891E00E949F10FE01AC
:10388000ED5BFF4F80E090E0A8ECB3E48083918390
:10389000A283B3838E01015C1F4FFE01ED5BFF4FDE
:1038A000608171818281938120E030E04AE755E4B4
:1038B0000E94B320DC01CB01F80180839183A283B5
:1038C000B383FE01FF96608171818281938120E044
:1038D00030E040E85FE30E94B92288232CF481E0C5
:1038E00090E09EAF8DAF46C0FE01FF966081718172
:1038F0008281938120E03FEF4FE757E40E945922F5
:10390000181664F5FE01ED5BFF4F608171818281C5
:10391000938120E030E040E251E40E94B320DC01DA
:10392000CB01BC01CD010E94DD1EDC01CB019EAFAD
:103930008DAF0FC080E991E09CAF8BAF8BAD9CAD9C
:103940000197F1F79CAF8BAF8DAD9EAD01979EAF08
:103950008DAF8DAD9EAD009769F716C0FE01FF9645
:1039600060817181828193810E94DD1EDC01CB0127
:103970009EAF8DAF8DAD9EAD9AAF89AF89AD9AAD3B
:103980000197F1F79AAF89AF8EE891E00E949F10FE
:1039900080E090E0A6E9B3E48DAB9EABAFABB8AFEF
:1039A0006DA97EA98FA998AD20E030E04AE755E4E3
:1039B0000E94B320DC01CB0189AB9AABABABBCABB3
:1039C00069A97AA98BA99CA920E030E040E85FE3CF
:1039D0000E94B92288232CF481E090E098AB8FA755
:1039E0003FC069A97AA98BA99CA920E03FEF4FE7C6
:1039F00057E40E94592218164CF56DA97EA98FA98B
:103A000098AD20E030E040E251E40E94B320DC01B8
:103A1000CB01BC01CD010E94DD1EDC01CB0198ABC6
:103A20008FA70FC080E991E09EA78DA78DA59EA5C9
:103A30000197F1F79EA78DA78FA598A9019798AB3D
:103A40008FA78FA598A9009769F714C069A97AA9CB
:103A50008BA99CA90E94DD1EDC01CB0198AB8FA72E
:103A60008FA598A99CA78BA78BA59CA50197F1F77B
:103A70009CA78BA78EE891E00E949F1080E090E0C9
:103A8000A8E4B3E48FA398A7A9A7BAA76FA178A5C4
:103A900089A59AA520E030E04AE755E40E94B320CA
:103AA000DC01CB018BA39CA3ADA3BEA36BA17CA126
:103AB0008DA19EA120E030E040E85FE30E94B922A2
:103AC00088232CF481E090E09AA389A33FC06BA1E6
:103AD0007CA18DA19EA120E03FEF4FE757E40E941B
:103AE000592218164CF56FA178A589A59AA520E052
:103AF00030E040E251E40E94B320DC01CB01BC0184
:103B0000CD010E94DD1EDC01CB019AA389A30FC069
:103B100080E991E098A38F8F8F8D98A10197F1F79D
:103B200098A38F8F89A19AA101979AA389A389A1AC
:103B30009AA1009769F714C06BA17CA18DA19EA1E9
:103B40000E94DD1EDC01CB019AA389A389A19AA161
:103B50009E8F8D8F8D8D9E8D0197F1F79E8F8D8F0E
:103B60008EE891E00E949F1080E090E0A8ECB2E423
:103B7000898F9A8FAB8FBC8F698D7A8D8B8D9C8D41
:103B800020E030E04AE755E40E94B320DC01CB019D
:103B90008D8B9E8BAF8BB88F6D897E898F89988D29
:103BA00020E030E040E85FE30E94B92288232CF453
:103BB00081E090E09C8B8B8B3FC06D897E898F89E3
:103BC000988D20E03FEF4FE757E40E9459221816E6
:103BD0004CF5698D7A8D8B8D9C8D20E030E040E234
:103BE00051E40E94B320DC01CB01BC01CD010E9455
:103BF000DD1EDC01CB019C8B8B8B0FC080E991E03B
:103C00009A8B898B89899A890197F1F79A8B898B8D
:103C10008B899C8901979C8B8B8B8B899C890097C6
:103C200069F714C06D897E898F89988D0E94DD1E89
:103C3000DC01CB019C8B8B8B8B899C89988B8F872C
:103C40008F8598890197F1F7988B8F870E940D14C3
:103C500080E060E00E94E21381EA91E00E949F1000
:103C600080E090E0AAE7B4E48B879C87AD87BE87AD
:103C70006B857C858D859E8520E030E04AE755E4A4
:103C80000E94B320DC01CB018F839887A987BA8774
:103C90006F81788589859A8520E030E040E85FE390
:103CA0000E94B92288232CF481E090E09E838D83CA
:103CB0003FC06F81788589859A8520E03FEF4FE787
:103CC00057E40E94592218164CF56B857C858D852A
:103CD0009E8520E030E040E251E40E94B320DC0108
:103CE000CB01BC01CD010E94DD1EDC01CB019E8316
:103CF0008D830FC080E991E09C838B838B819C81B5
:103D00000197F1F79C838B838D819E8101979E8320
:103D10008D838D819E81009769F714C06F817885AE
:103D200089859A850E94DD1EDC01CB019E838D83EF
:103D30008D819E819A83898389819A810197F1F788
:103D40009A838983C052DF4F0FB6F894DEBF0FBE4F
:103D5000CDBFCF91DF911F910F910895DF93CF9346
:103D6000CDB7DEB70E949D000E9445070E94090260
:103D70000E9453000E9417140E945D02FDCFDF9342
:103D8000CF9300D0CDB7DEB79A838983A4E4B0E0A7
:103D9000E4E4F0E0808183688C93E7E4F0E08981DB
:103DA0008083A5E4B0E0E5E4F0E0808181608C935D
:103DB0000F900F90CF91DF910895EF92FF920F93A4
:103DC0001F937B018C0120E030E040E05FE40E9423
:103DD000892288238CF0C801B70120E030E040E060
:103DE0005FE40E9455200E94E9229B01AC01205013
:103DF00030404040504806C0C801B7010E94E92247
:103E00009B01AC01B901CA011F910F91FF90EF9086
:103E10000895A0E0B0E0EFE0FFE10C940A25DC019A
:103E20002B01FA019C91923008F439C1EB01888191
:103E3000823008F433C1943069F4843009F02FC122
:103E400011969C9111978981981709F428C1A2EBCA
:103E5000B1E025C1843009F421C18230A9F4923047
:103E600009F01DC19A01AD0188E0EA010990AE0197
:103E7000E90109929E018150C1F7E2018981119601
:103E80009C918923818308C1923009F407C112965D
:103E90002D903C901397EB018A819B811496AD90F5
:103EA000BD90CD90DC901797EC80FD800E811F8136
:103EB0009101281B390BB90137FF04C0662777270A
:103EC000621B730B603271050CF061C01216130691
:103ED0006CF537014801062E04C0969487947794B8
:103EE00067940A94D2F721E030E040E050E004C04B
:103EF000220F331F441F551F6A95D2F721503040BF
:103F0000404050402E213F214023512321153105AF
:103F10004105510521F021E030E040E050E0790119
:103F20008A01E628F728082919293CC0232BD1F15A
:103F3000260E371E35014601062E04C0969487943E
:103F4000779467940A94D2F721E030E040E050E0A3
:103F500004C0220F331F441F551F6A95D2F721500A
:103F60003040404050402A213B214C215D21211509
:103F700031054105510521F021E030E040E050E0FD
:103F800059016A01A628B728C828D9280BC082156C
:103F900093052CF01C01AA24BB24650103C0EE2468
:103FA000FF24870111969C91D20111968C9198174C
:103FB00009F445C0992339F0A80197012A193B0952
:103FC0004C095D0906C0A60195012E193F09400B59
:103FD000510B57FD08C0118233822282248335831E
:103FE000468357831DC081E08183338222828827E4
:103FF0009927DC01821B930BA40BB50B848395835B
:10400000A683B7830DC0220F331F441F551F24837F
:10401000358346835783828193810197938382837B
:104020002481358146815781DA01C9010197A109AF
:10403000B1098F5F9F4FAF4FBF4328F30BC09183F0
:1040400033822282EA0CFB1C0C1D1D1DE482F582CA
:104050000683178383E080832481358146815781DD
:1040600057FF1AC0C901AA2797FDA095BA2F8170E2
:104070009070A070B0705695479537952795822B14
:10408000932BA42BB52B84839583A683B78382813E
:104090009381019693838283DF0101C0D201CD0118
:1040A000CDB7DEB7E2E10C942625A0E2B0E0EBE567
:1040B000F0E20C94162569837A838B839C832D838D
:1040C0003E834F835887E9E0EE2EF12CEC0EFD1E67
:1040D000CE010196B7010E9412248E010F5E1F4F80
:1040E000CE010596B8010E9412248A8991E08927A1
:1040F0008A8BC701B801AE01475E5F4F0E94091F5E
:104100000E943D23A096E6E00C943225A0E2B0E0A8
:10411000ECE8F0E20C94162569837A838B839C8308
:104120002D833E834F835887F9E0EF2EF12CEC0E60
:10413000FD1ECE010196B7010E9412248E010F5E72
:104140001F4FCE010596B8010E941224C701B80185
:10415000AE01475E5F4F0E94091F0E943D23A0965B
:10416000E6E00C943225A0E2B0E0E9EBF0E20C943A
:104170000A2569837A838B839C832D833E834F83B7
:104180005887CE010196BE01675F7F4F0E941224BF
:10419000CE010596BE016F5E7F4F0E941224998565
:1041A000923088F089898230C8F0943019F48230D6
:1041B00051F404C0843029F4923081F482EB91E010
:1041C000C6C0923049F420E09A858A89981321E08C
:1041D0002A87CE010996BBC0823049F420E09A8537
:1041E0008A89981321E02A8BCE014196B0C02D8494
:1041F0003E844F8458886D887E888F88988CEE2402
:10420000FF248701AA24BB24650140E050E060E060
:1042100070E0E0E0F0E0C10181709070892BE9F07E
:10422000E60CF71C081D191D9A01AB012A0D3B1D58
:104230004C1D5D1D80E090E0A0E0B0E0E614F704C6
:104240000805190520F481E090E0A0E0B0E0BA0193
:10425000A901480F591F6A1F7B1FAA0CBB1CCC1C4D
:10426000DD1C97FE08C081E090E0A0E0B0E0A82A45
:10427000B92ACA2ADB2A3196E032F10549F0660CE8
:10428000771C881C991C5694479437942794C3CF65
:10429000FA85EA892B893C898B859C85280F391FF3
:1042A0002E5F3F4F17C0CA0181709070892B61F05B
:1042B00016950795F794E79480E090E0A0E0B0E8C9
:1042C000E82AF92A0A2B1B2B76956795579547956F
:1042D0002F5F3F4F77FDE7CF0CC0440F551F661F80
:1042E000771F17FD4160EE0CFF1C001F111F2150AE
:1042F0003040403090E0590790E0690790E479073A
:1043000060F32B8F3C8FDB01CA018F779070A07018
:10431000B07080349105A105B10561F447FD0AC074
:10432000E114F1040105110529F0405C5F4F6F4F66
:104330007F4F40781A8EFE1711F081E08A8F4D8FE3
:104340005E8F6F8F78A383E0898FCE0149960E949C
:104350003D23A096E2E10C942625A8E1B0E0E3EB32
:10436000F1E20C94122569837A838B839C832D83DD
:104370003E834F835887B9E0EB2EF12CEC0EFD1EE7
:10438000CE010196B7010E9412248E010F5E1F4FCD
:10439000CE010596B8010E9412242985223008F426
:1043A0007EC03989323010F4B8017CC08A859A8980
:1043B00089278A87243011F0223031F4231709F03D
:1043C0006EC062EB71E06EC0343039F41D861E861B
:1043D0001F86188A1C861B8604C0323021F484E0B4
:1043E0008987B7015FC02B853C858B899C89281BF9
:1043F000390B3C872B87ED84FE840F851889AD88A7
:10440000BE88CF88D88CEA14FB040C051D0540F447
:10441000EE0CFF1C001F111F215030403C872B87E2
:1044200020E030E040E050E080E090E0A0E0B0E448
:1044300060E070E0EA14FB040C051D0540F0282B39
:10444000392B4A2B5B2BEA18FB080C091D09B69582
:10445000A79597958795EE0CFF1C001F111F6F5FA6
:104460007F4F6F31710531F7DA01C9018F77907095
:10447000A070B07080349105A105B10561F427FDED
:104480000AC0E114F1040105110529F0205C3F4F39
:104490004F4F5F4F20782D873E874F87588BBE0147
:1044A000675F7F4FCB010E943D236896EAE00C9442
:1044B0002E25A8E1B0E0EFE5F2E20C941625698321
:1044C0007A838B839C832D833E834F83588789E037
:1044D000E82EF12CEC0EFD1ECE010196B7010E94D4
:1044E00012248E010F5E1F4FCE010596B8010E9467
:1044F00012248985823040F08989823028F0C701F2
:10450000B8010E948A2401C08FEF6896E6E00C94FF
:104510003225A8E1B0E0EFE8F2E20C9416256983B9
:104520007A838B839C832D833E834F83588789E0D6
:10453000E82EF12CEC0EFD1ECE010196B7010E9473
:1045400012248E010F5E1F4FCE010596B8010E9406
:1045500012248985823040F08989823028F0C70191
:10456000B8010E948A2401C08FEF6896E6E00C949F
:104570003225A8E1B0E0EFEBF2E20C941625698356
:104580007A838B839C832D833E834F83588789E076
:10459000E82EF12CEC0EFD1ECE010196B7010E9413
:1045A00012248E010F5E1F4FCE010596B8010E94A6
:1045B00012248985823040F08989823028F0C70131
:1045C000B8010E948A2401C081E06896E6E00C945C
:1045D0003225ACE0B0E0EFEEF2E20C941A256983EC
:1045E0007A838B839C83CE010196BE016B5F7F4FE4
:1045F0000E9412248D81823061F1823050F184302A
:1046000021F48E81882351F12EC02F81388537FD0A
:1046100020C06E812F3131051CF06623F9F023C0D4
:104620008EE190E0821B930B29853A854B855C8552
:1046300004C056954795379527958A95D2F76623F6
:10464000B1F050954095309521953F4F4F4F5F4FBA
:104650000EC020E030E040E050E009C02FEF3FEF17
:104660004FEF5FE704C020E030E040E050E8B901E0
:10467000CA012C96E2E00C943625DF92EF92FF926D
:104680000F931F93FC01E480F58006811781D18090
:104690008081823048F480E090E0A0E1B0E0E82A38
:1046A000F92A0A2B1B2BA5C0843009F49FC0823045
:1046B00021F4EE24FF24870105C0E114F104010573
:1046C000110519F4E0E0F0E096C0628173819FEF7C
:1046D000623879070CF05BC022E83FEF261B370BEE
:1046E0002A3131052CF020E030E040E050E02AC0D3
:1046F000B801A701022E04C0769567955795479596
:104700000A94D2F781E090E0A0E0B0E004C0880F06
:10471000991FAA1FBB1F2A95D2F70197A109B109BA
:104720008E219F21A023B1230097A105B10521F07F
:1047300081E090E0A0E0B0E09A01AB01282B392B9A
:104740004A2B5B2BDA01C9018F779070A070B07093
:1047500080349105A105B10539F427FF09C0205C1B
:104760003F4F4F4F5F4F04C0215C3F4F4F4F5F4F54
:10477000E0E0F0E02030A0E03A07A0E04A07A0E443
:104780005A0710F0E1E0F0E079018A0127C06038B3
:10479000710564F5FB01E158FF4FD801C7018F7720
:1047A0009070A070B07080349105A105B10539F406
:1047B000E7FE0DC080E490E0A0E0B0E004C08FE32D
:1047C00090E0A0E0B0E0E80EF91E0A1F1B1F17FFE3
:1047D00005C016950795F794E794319687E01695EE
:1047E0000795F794E7948A95D1F705C0EE24FF2446
:1047F0008701EFEFF0E06E2F679566276795902FA2
:104800009F77D794DD24D7948E2F8695492F462BFA
:10481000582F5D29B701CA011F910F91FF90EF90AA
:10482000DF900895FC01DB01408151812281622FDC
:104830006F7770E0221F2227221F9381892F880F14
:10484000822B282F30E0991F9927991F11969C934E
:10485000119721153105A9F541155105610571051E
:1048600011F482E037C082E89FEF13969C938E93F9
:1048700012979A01AB0167E0220F331F441F551FA7
:104880006A95D1F783E08C930DC0220F331F441F2C
:10489000551F12968D919C911397019713969C9397
:1048A0008E931297203080E0380780E0480780E43C
:1048B000580758F314962D933D934D935C93179797
:1048C00008952F3F310579F44115510561057105B2
:1048D00019F484E08C93089564FF03C081E08C9305
:1048E00012C01C9210C02F57304013963C932E9349
:1048F000129783E08C9387E0440F551F661F771F44
:104900008A95D1F7706414964D935D936D937C9363
:10491000179708951F93DC01FB019C91923008F4D6
:1049200047C08081823008F443C0943051F411961E
:104930001C91843099F58181682F70E0611B7109A9
:104940003FC0843021F0923031F48230B9F181815E
:10495000882389F12DC011961C9111978230F1F0B6
:1049600081811817D9F412962D913C911397828169
:1049700093818217930794F028173907BCF0149697
:104980008D919D910D90BC91A02D24813581468102
:104990005781281739074A075B0718F4112341F09C
:1049A0000AC082179307A407B50740F4112319F032
:1049B00061E070E005C06FEF7FEF02C060E070E083
:1049C000CB011F91089597FB092E07260AD077FD8A
:1049D00004D00CD006D000201AF4709561957F4F5A
:1049E0000895F6F7909581959F4F0895AA1BBB1BDC
:1049F00051E107C0AA1FBB1FA617B70710F0A61BDF
:104A0000B70B881F991F5A95A9F780959095BC01FF
:104A1000CD0108952F923F924F925F926F927F92B5
:104A20008F929F92AF92BF92CF92DF92EF92FF92BE
:104A30000F931F93CF93DF93CDB7DEB7CA1BDB0B6A
:104A40000FB6F894DEBF0FBECDBF09942A8839880F
:104A500048885F846E847D848C849B84AA84B98416
:104A6000C884DF80EE80FD800C811B81AA81B98122
:104A7000CE0FD11D0FB6F894DEBF0FBECDBFED0136
:104A80000895FB019F01E8944230C4F04532B4F42C
:104A90004A3029F497FB1EF4909581959F4F642F1F
:104AA00077270E94F624805D8A330CF0895D81931C
:104AB000CB010097A1F716F45DE251931082C90172
:104AC0000C946225DC01FC01672F71917723E1F7DB
:104AD000329704C07C916D9370836291AE17BF07CB
:084AE000C8F30895F894FFCF1C
:104AE8004E002020202020202020202020202020B0
:104AF800202000484F524E204F4E00445554592014
:104B08004359434C452000434F494C2054454D5090
:104B1800202020202000434F494C2054454D502050
:104B280000484F524E204F464600454E47494E4595
:104B3800204F4E00454E47494E45204F46460031CE
:104B480030300020484F524E2053595354454D2081
:104B5800464F5200202020202056454849434C45C6
:104B6800002043414C4942524154494E47002E00CF
:104B78002043414C4942524154494E47202020206D
:104B8800002020205052455353204B455953202094
:0A4B980020000000000000000000F3
:00000001FF
